{
  "contractName": "CatecoinLibrary",
  "abi": [
    {
      "constant": true,
      "inputs": [
        {
          "name": "startTimestamp",
          "type": "uint256"
        }
      ],
      "name": "calculateCurrentTimePeriod",
      "outputs": [
        {
          "name": "",
          "type": "uint256"
        }
      ],
      "payable": false,
      "stateMutability": "view",
      "type": "function"
    },
    {
      "constant": true,
      "inputs": [
        {
          "name": "startTimestamp",
          "type": "uint256"
        }
      ],
      "name": "calculateCurrentDayOfTheWeek",
      "outputs": [
        {
          "name": "",
          "type": "uint256"
        }
      ],
      "payable": false,
      "stateMutability": "view",
      "type": "function"
    }
  ],
  "bytecode": "0x610137610030600b82828239805160001a6073146000811461002057610022565bfe5b5030600052607381538281f3007300000000000000000000000000000000000000003014606060405260043610610063576000357c0100000000000000000000000000000000000000000000000000000000900463ffffffff1680632df32b0c146100685780637db604ce14610094575b600080fd5b61007e60048080359060200190919050506100c0565b6040518082815260200191505060405180910390f35b6100aa60048080359060200190919050506100e6565b6040518082815260200191505060405180910390f35b60006007620151808342038115156100d457fe5b048115156100de57fe5b069050919050565b60006008612a308342038115156100f957fe5b0481151561010357fe5b0690509190505600a165627a7a72305820a423f173a71a9749a8fd0340a97a411d50a7c445b886d923cd8a3fc6ea2dd9040029",
  "source": "pragma solidity ^0.4.11;\n\nlibrary CatecoinLibrary{\n    function calculateCurrentTimePeriod(uint startTimestamp) public view returns (uint256) {\n      return ((now - startTimestamp) / 10800) % 8; // To TEST return currentTimePeriod\n    }\n\n    function calculateCurrentDayOfTheWeek(uint startTimestamp) public view returns (uint256) { // Day 0 is equal to Wednesday --> to change if not launched on 17.01.18\n      return ((now - startTimestamp) / 86400) % 7; // To TEST return currentDayPeriod\n    }\n}\n",
  "sourcePath": "/home/gno/ca7ecoin/ca7ecoin-contracts/contracts/CatecoinLibrary.sol",
  "compiler": {
    "name": "solc",
    "version": "0.4.21+commit.dfe3193c.Emscripten.clang"
  },
  "schemaVersion": "2.0.0",
  "updatedAt": "2018-04-03T15:03:54.812Z"
}