{
  "contractName": "CatecoinLibrary",
  "abi": [
    {
      "constant": true,
      "inputs": [
        {
          "name": "startTimestamp",
          "type": "uint256"
        }
      ],
      "name": "calculateCurrentTimePeriod",
      "outputs": [
        {
          "name": "",
          "type": "uint256"
        }
      ],
      "payable": false,
      "stateMutability": "view",
      "type": "function"
    },
    {
      "constant": true,
      "inputs": [
        {
          "name": "startTimestamp",
          "type": "uint256"
        }
      ],
      "name": "calculateCurrentDayOfTheWeek",
      "outputs": [
        {
          "name": "",
          "type": "uint256"
        }
      ],
      "payable": false,
      "stateMutability": "view",
      "type": "function"
    }
  ],
  "bytecode": "0x6060604052341561000f57600080fd5b6101158061001e6000396000f3006060604052600436106049576000357c0100000000000000000000000000000000000000000000000000000000900463ffffffff1680632df32b0c14604e5780637db604ce146078575b600080fd5b6062600480803590602001909190505060a2565b6040518082815260200191505060405180910390f35b608c600480803590602001909190505060c6565b6040518082815260200191505060405180910390f35b600060076201518083420381151560b557fe5b0481151560be57fe5b069050919050565b60006008612a3083420381151560d857fe5b0481151560e157fe5b0690509190505600a165627a7a7230582050e66d05e122fa584e353fc3c671a0347ac2e2f8d2d6c3e051b8e9f526489bf60029",
  "source": "pragma solidity ^0.4.11;\n\nlibrary CatecoinLibrary{\n    function calculateCurrentTimePeriod(uint startTimestamp) public view returns (uint256) {\n      return ((now - startTimestamp) / 10800) % 8; // To TEST return currentTimePeriod\n    }\n\n    function calculateCurrentDayOfTheWeek(uint startTimestamp) public view returns (uint256) { // Day 0 is equal to Wednesday --> to change if not launched on 17.01.18\n      return ((now - startTimestamp) / 86400) % 7; // To TEST return currentDayPeriod\n    }\n}\n",
  "sourcePath": "/home/gno/catecoin/catecoin-project/ca7ecoin-contracts/contracts/CatecoinLibrary.sol",
  "compiler": {
    "name": "solc",
    "version": "0.4.19+commit.c4cbbb05.Emscripten.clang"
  },
  "schemaVersion": "1.0.1",
  "updatedAt": "2018-02-16T14:51:48.356Z"
}