{
  "contractName": "CatecoinIssuance",
  "abi": [
    {
      "constant": true,
      "inputs": [],
      "name": "milliCA7E",
      "outputs": [
        {
          "name": "",
          "type": "uint256"
        }
      ],
      "payable": false,
      "stateMutability": "view",
      "type": "function"
    },
    {
      "constant": true,
      "inputs": [],
      "name": "name",
      "outputs": [
        {
          "name": "",
          "type": "string"
        }
      ],
      "payable": false,
      "stateMutability": "view",
      "type": "function"
    },
    {
      "constant": false,
      "inputs": [
        {
          "name": "_spender",
          "type": "address"
        },
        {
          "name": "_value",
          "type": "uint256"
        }
      ],
      "name": "approve",
      "outputs": [
        {
          "name": "",
          "type": "bool"
        }
      ],
      "payable": false,
      "stateMutability": "nonpayable",
      "type": "function"
    },
    {
      "constant": true,
      "inputs": [],
      "name": "totalSupplyCC",
      "outputs": [
        {
          "name": "",
          "type": "uint256"
        }
      ],
      "payable": false,
      "stateMutability": "view",
      "type": "function"
    },
    {
      "constant": true,
      "inputs": [],
      "name": "totalSupply",
      "outputs": [
        {
          "name": "",
          "type": "uint256"
        }
      ],
      "payable": false,
      "stateMutability": "view",
      "type": "function"
    },
    {
      "constant": false,
      "inputs": [
        {
          "name": "_from",
          "type": "address"
        },
        {
          "name": "_to",
          "type": "address"
        },
        {
          "name": "_value",
          "type": "uint256"
        }
      ],
      "name": "transferFrom",
      "outputs": [
        {
          "name": "",
          "type": "bool"
        }
      ],
      "payable": false,
      "stateMutability": "nonpayable",
      "type": "function"
    },
    {
      "constant": true,
      "inputs": [],
      "name": "nanoCA7E",
      "outputs": [
        {
          "name": "",
          "type": "uint256"
        }
      ],
      "payable": false,
      "stateMutability": "view",
      "type": "function"
    },
    {
      "constant": true,
      "inputs": [],
      "name": "CA7E",
      "outputs": [
        {
          "name": "",
          "type": "uint256"
        }
      ],
      "payable": false,
      "stateMutability": "view",
      "type": "function"
    },
    {
      "constant": true,
      "inputs": [],
      "name": "decimals",
      "outputs": [
        {
          "name": "",
          "type": "uint8"
        }
      ],
      "payable": false,
      "stateMutability": "view",
      "type": "function"
    },
    {
      "constant": false,
      "inputs": [
        {
          "name": "_spender",
          "type": "address"
        },
        {
          "name": "_subtractedValue",
          "type": "uint256"
        }
      ],
      "name": "decreaseApproval",
      "outputs": [
        {
          "name": "",
          "type": "bool"
        }
      ],
      "payable": false,
      "stateMutability": "nonpayable",
      "type": "function"
    },
    {
      "constant": true,
      "inputs": [],
      "name": "issuanceIsFinished",
      "outputs": [
        {
          "name": "",
          "type": "bool"
        }
      ],
      "payable": false,
      "stateMutability": "view",
      "type": "function"
    },
    {
      "constant": true,
      "inputs": [
        {
          "name": "_owner",
          "type": "address"
        }
      ],
      "name": "balanceOf",
      "outputs": [
        {
          "name": "balance",
          "type": "uint256"
        }
      ],
      "payable": false,
      "stateMutability": "view",
      "type": "function"
    },
    {
      "constant": true,
      "inputs": [],
      "name": "circulatingSupplyCC",
      "outputs": [
        {
          "name": "",
          "type": "uint256"
        }
      ],
      "payable": false,
      "stateMutability": "view",
      "type": "function"
    },
    {
      "constant": true,
      "inputs": [],
      "name": "symbol",
      "outputs": [
        {
          "name": "",
          "type": "string"
        }
      ],
      "payable": false,
      "stateMutability": "view",
      "type": "function"
    },
    {
      "constant": true,
      "inputs": [],
      "name": "catecoinFoundationAddress",
      "outputs": [
        {
          "name": "",
          "type": "address"
        }
      ],
      "payable": false,
      "stateMutability": "view",
      "type": "function"
    },
    {
      "constant": false,
      "inputs": [
        {
          "name": "_to",
          "type": "address"
        },
        {
          "name": "_value",
          "type": "uint256"
        }
      ],
      "name": "transfer",
      "outputs": [
        {
          "name": "",
          "type": "bool"
        }
      ],
      "payable": false,
      "stateMutability": "nonpayable",
      "type": "function"
    },
    {
      "constant": true,
      "inputs": [],
      "name": "microCA7E",
      "outputs": [
        {
          "name": "",
          "type": "uint256"
        }
      ],
      "payable": false,
      "stateMutability": "view",
      "type": "function"
    },
    {
      "constant": false,
      "inputs": [
        {
          "name": "_spender",
          "type": "address"
        },
        {
          "name": "_addedValue",
          "type": "uint256"
        }
      ],
      "name": "increaseApproval",
      "outputs": [
        {
          "name": "",
          "type": "bool"
        }
      ],
      "payable": false,
      "stateMutability": "nonpayable",
      "type": "function"
    },
    {
      "constant": true,
      "inputs": [],
      "name": "cateAddressInBytes",
      "outputs": [
        {
          "name": "",
          "type": "bytes20"
        }
      ],
      "payable": false,
      "stateMutability": "view",
      "type": "function"
    },
    {
      "constant": true,
      "inputs": [
        {
          "name": "_owner",
          "type": "address"
        },
        {
          "name": "_spender",
          "type": "address"
        }
      ],
      "name": "allowance",
      "outputs": [
        {
          "name": "",
          "type": "uint256"
        }
      ],
      "payable": false,
      "stateMutability": "view",
      "type": "function"
    },
    {
      "constant": true,
      "inputs": [],
      "name": "startTimestamp",
      "outputs": [
        {
          "name": "",
          "type": "uint256"
        }
      ],
      "payable": false,
      "stateMutability": "view",
      "type": "function"
    },
    {
      "constant": true,
      "inputs": [
        {
          "name": "",
          "type": "address"
        }
      ],
      "name": "competSenderState",
      "outputs": [
        {
          "name": "hasParticipated",
          "type": "bool"
        },
        {
          "name": "hasClaimed",
          "type": "bool"
        }
      ],
      "payable": false,
      "stateMutability": "view",
      "type": "function"
    },
    {
      "inputs": [],
      "payable": false,
      "stateMutability": "nonpayable",
      "type": "constructor"
    },
    {
      "anonymous": false,
      "inputs": [
        {
          "indexed": true,
          "name": "owner",
          "type": "address"
        },
        {
          "indexed": true,
          "name": "spender",
          "type": "address"
        },
        {
          "indexed": false,
          "name": "value",
          "type": "uint256"
        }
      ],
      "name": "Approval",
      "type": "event"
    },
    {
      "anonymous": false,
      "inputs": [
        {
          "indexed": true,
          "name": "from",
          "type": "address"
        },
        {
          "indexed": true,
          "name": "to",
          "type": "address"
        },
        {
          "indexed": false,
          "name": "value",
          "type": "uint256"
        }
      ],
      "name": "Transfer",
      "type": "event"
    },
    {
      "constant": false,
      "inputs": [],
      "name": "claimMinedCatecoin",
      "outputs": [
        {
          "name": "",
          "type": "bool"
        }
      ],
      "payable": false,
      "stateMutability": "nonpayable",
      "type": "function"
    },
    {
      "constant": false,
      "inputs": [
        {
          "name": "_circulatingSupply",
          "type": "uint256"
        },
        {
          "name": "_totalSupply",
          "type": "uint256"
        },
        {
          "name": "_coinsToReceive",
          "type": "uint256"
        },
        {
          "name": "_supplyType",
          "type": "uint8"
        }
      ],
      "name": "testAndSafelyTransferCatecoin",
      "outputs": [
        {
          "name": "",
          "type": "bool"
        }
      ],
      "payable": false,
      "stateMutability": "nonpayable",
      "type": "function"
    },
    {
      "constant": false,
      "inputs": [
        {
          "name": "_senderAddressDifficulty",
          "type": "uint8"
        }
      ],
      "name": "calculateMinedCatecoin",
      "outputs": [
        {
          "name": "",
          "type": "uint256"
        }
      ],
      "payable": false,
      "stateMutability": "nonpayable",
      "type": "function"
    },
    {
      "constant": true,
      "inputs": [],
      "name": "calculateHalving",
      "outputs": [
        {
          "name": "",
          "type": "uint256"
        }
      ],
      "payable": false,
      "stateMutability": "view",
      "type": "function"
    },
    {
      "constant": false,
      "inputs": [
        {
          "name": "_lastelyCalculatedHalvingValue",
          "type": "uint256"
        }
      ],
      "name": "setNewHalving",
      "outputs": [],
      "payable": false,
      "stateMutability": "nonpayable",
      "type": "function"
    },
    {
      "constant": false,
      "inputs": [],
      "name": "catecoinCompetition",
      "outputs": [
        {
          "name": "",
          "type": "bool"
        }
      ],
      "payable": false,
      "stateMutability": "nonpayable",
      "type": "function"
    },
    {
      "constant": false,
      "inputs": [],
      "name": "claimMinedCatecoin_InCompetition",
      "outputs": [
        {
          "name": "",
          "type": "bool"
        }
      ],
      "payable": false,
      "stateMutability": "nonpayable",
      "type": "function"
    },
    {
      "constant": true,
      "inputs": [
        {
          "name": "_startTimestamp",
          "type": "uint256"
        }
      ],
      "name": "calculateCurrentTimePeriod",
      "outputs": [
        {
          "name": "",
          "type": "uint256"
        }
      ],
      "payable": false,
      "stateMutability": "view",
      "type": "function"
    },
    {
      "constant": true,
      "inputs": [
        {
          "name": "_startTimestamp",
          "type": "uint256"
        }
      ],
      "name": "calculateCurrentDayOfTheWeek",
      "outputs": [
        {
          "name": "",
          "type": "uint256"
        }
      ],
      "payable": false,
      "stateMutability": "view",
      "type": "function"
    }
  ],
  "bytecode": "0x606060405273ca7e0000000000000000000000000000000000006c0100000000000000000000000002600660006101000a81548173ffffffffffffffffffffffffffffffffffffffff02191690836c0100000000000000000000000090040217905550670de0b6b3a764000060075566038d7ea4c6800060085564e8d4a51000600955633b9aca00600a55635a5e9200600b55341561009d57600080fd5b600033600560006101000a81548173ffffffffffffffffffffffffffffffffffffffff021916908373ffffffffffffffffffffffffffffffffffffffff160217905550600354600d60000181905550600754600302600d60010181905550600754600302600d60020181905550600754600102600d60030181905550600d60030154600d60020154600d600101540101600d6000015414151561013f57600080fd5b600090505b604d81101561015a578080600101915050610144565b60036016604d604e8110151561016c57fe5b018190555050612333806101816000396000f30060606040526004361061018a576000357c0100000000000000000000000000000000000000000000000000000000900463ffffffff16806267232f1461018f57806306fdde03146101b8578063095ea7b3146102465780630f689b12146102a057806318160ddd146102c95780631c89f840146102f257806323b872dd1461034b57806323e9f5b0146103c45780632df32b0c146103ed5780632f2e9df914610424578063313ce5671461044d5780633cd9f17c1461047c5780634a90d7941461049f5780635be3346b146104c857806366188463146104f557806367bfb0371461054f57806370a082311461057c57806375e63a40146105c95780637db604ce146105f257806395d89b4114610629578063a161183b146106b7578063a9059cbb1461070c578063b8825f0514610766578063bf1d74b21461078f578063d73dd623146107c9578063dc9ae2d214610823578063dd62ed3e1461086a578063de1d50a1146108d6578063e6fd48bc14610903578063eafc25441461092c578063f200a64114610959575b600080fd5b341561019a57600080fd5b6101a26109b5565b6040518082815260200191505060405180910390f35b34156101c357600080fd5b6101cb6109bb565b6040518080602001828103825283818151815260200191508051906020019080838360005b8381101561020b5780820151818401526020810190506101f0565b50505050905090810190601f1680156102385780820380516001836020036101000a031916815260200191505b509250505060405180910390f35b341561025157600080fd5b610286600480803573ffffffffffffffffffffffffffffffffffffffff169060200190919080359060200190919050506109f4565b604051808215151515815260200191505060405180910390f35b34156102ab57600080fd5b6102b3610ae6565b6040518082815260200191505060405180910390f35b34156102d457600080fd5b6102dc610aec565b6040518082815260200191505060405180910390f35b34156102fd57600080fd5b610331600480803590602001909190803590602001909190803590602001909190803560ff16906020019091905050610af2565b604051808215151515815260200191505060405180910390f35b341561035657600080fd5b6103aa600480803573ffffffffffffffffffffffffffffffffffffffff1690602001909190803573ffffffffffffffffffffffffffffffffffffffff16906020019091908035906020019091905050610cce565b604051808215151515815260200191505060405180910390f35b34156103cf57600080fd5b6103d761108d565b6040518082815260200191505060405180910390f35b34156103f857600080fd5b61040e6004808035906020019091905050611093565b6040518082815260200191505060405180910390f35b341561042f57600080fd5b6104376110b9565b6040518082815260200191505060405180910390f35b341561045857600080fd5b6104606110bf565b604051808260ff1660ff16815260200191505060405180910390f35b341561048757600080fd5b61049d60048080359060200190919050506110c4565b005b34156104aa57600080fd5b6104b26110de565b6040518082815260200191505060405180910390f35b34156104d357600080fd5b6104db61114b565b604051808215151515815260200191505060405180910390f35b341561050057600080fd5b610535600480803573ffffffffffffffffffffffffffffffffffffffff1690602001909190803590602001909190505061129b565b604051808215151515815260200191505060405180910390f35b341561055a57600080fd5b61056261152c565b604051808215151515815260200191505060405180910390f35b341561058757600080fd5b6105b3600480803573ffffffffffffffffffffffffffffffffffffffff1690602001909190505061153f565b6040518082815260200191505060405180910390f35b34156105d457600080fd5b6105dc611588565b6040518082815260200191505060405180910390f35b34156105fd57600080fd5b610613600480803590602001909190505061158e565b6040518082815260200191505060405180910390f35b341561063457600080fd5b61063c6115b3565b6040518080602001828103825283818151815260200191508051906020019080838360005b8381101561067c578082015181840152602081019050610661565b50505050905090810190601f1680156106a95780820380516001836020036101000a031916815260200191505b509250505060405180910390f35b34156106c257600080fd5b6106ca6115ec565b604051808273ffffffffffffffffffffffffffffffffffffffff1673ffffffffffffffffffffffffffffffffffffffff16815260200191505060405180910390f35b341561071757600080fd5b61074c600480803573ffffffffffffffffffffffffffffffffffffffff16906020019091908035906020019091905050611612565b604051808215151515815260200191505060405180910390f35b341561077157600080fd5b610779611836565b6040518082815260200191505060405180910390f35b341561079a57600080fd5b6107b3600480803560ff1690602001909190505061183c565b6040518082815260200191505060405180910390f35b34156107d457600080fd5b610809600480803573ffffffffffffffffffffffffffffffffffffffff169060200190919080359060200190919050506118a3565b604051808215151515815260200191505060405180910390f35b341561082e57600080fd5b610836611a9f565b60405180826bffffffffffffffffffffffff19166bffffffffffffffffffffffff1916815260200191505060405180910390f35b341561087557600080fd5b6108c0600480803573ffffffffffffffffffffffffffffffffffffffff1690602001909190803573ffffffffffffffffffffffffffffffffffffffff16906020019091905050611abe565b6040518082815260200191505060405180910390f35b34156108e157600080fd5b6108e9611b45565b604051808215151515815260200191505060405180910390f35b341561090e57600080fd5b610916611e67565b6040518082815260200191505060405180910390f35b341561093757600080fd5b61093f611e6d565b604051808215151515815260200191505060405180910390f35b341561096457600080fd5b610990600480803573ffffffffffffffffffffffffffffffffffffffff169060200190919050506120bf565b6040518083151515158152602001821515151581526020019250505060405180910390f35b60085481565b6040805190810160405280600881526020017f43617465636f696e00000000000000000000000000000000000000000000000081525081565b600081600260003373ffffffffffffffffffffffffffffffffffffffff1673ffffffffffffffffffffffffffffffffffffffff16815260200190815260200160002060008573ffffffffffffffffffffffffffffffffffffffff1673ffffffffffffffffffffffffffffffffffffffff168152602001908152602001600020819055508273ffffffffffffffffffffffffffffffffffffffff163373ffffffffffffffffffffffffffffffffffffffff167f8c5be1e5ebec7d5bd14f71427d1e84f3dd0314c0f7b2291e5b200ac8c7c3b925846040518082815260200191505060405180910390a36001905092915050565b60035481565b60005481565b600080600080600087878a01111515610b6257610b1e33600760068a02811515610b1857fe5b04611612565b9350610b5b600560009054906101000a900473ffffffffffffffffffffffffffffffffffffffff16600760018a02811515610b5557fe5b04611612565b9250610bc7565b610b6c888a6120fd565b9150610b8733600760068502811515610b8157fe5b04611612565b9350610bc4600560009054906101000a900473ffffffffffffffffffffffffffffffffffffffff16600760018502811515610bbe57fe5b04611612565b92505b838015610bd15750825b9050801515610bdf57600080fd5b87878a01111515610c4f5760008660ff161415610c0a57866011600101600082825401925050819055505b60018660ff161415610c2a57866011600201600082825401925050819055505b60028660ff161415610c4a57866011600301600082825401925050819055505b610cbf565b60008660ff161415610c6b57600d600101546011600101819055505b60018660ff161415610c8757600d600201546011600201819055505b60028660ff161415610ca357600d600301546011600301819055505b6001600c60006101000a81548160ff0219169083151502179055505b80945050505050949350505050565b60008073ffffffffffffffffffffffffffffffffffffffff168373ffffffffffffffffffffffffffffffffffffffff1614151515610d0b57600080fd5b600160008573ffffffffffffffffffffffffffffffffffffffff1673ffffffffffffffffffffffffffffffffffffffff168152602001908152602001600020548211151515610d5957600080fd5b600260008573ffffffffffffffffffffffffffffffffffffffff1673ffffffffffffffffffffffffffffffffffffffff16815260200190815260200160002060003373ffffffffffffffffffffffffffffffffffffffff1673ffffffffffffffffffffffffffffffffffffffff168152602001908152602001600020548211151515610de457600080fd5b610e3682600160008773ffffffffffffffffffffffffffffffffffffffff1673ffffffffffffffffffffffffffffffffffffffff1681526020019081526020016000205461211690919063ffffffff16565b600160008673ffffffffffffffffffffffffffffffffffffffff1673ffffffffffffffffffffffffffffffffffffffff16815260200190815260200160002081905550610ecb82600160008673ffffffffffffffffffffffffffffffffffffffff1673ffffffffffffffffffffffffffffffffffffffff1681526020019081526020016000205461212f90919063ffffffff16565b600160008573ffffffffffffffffffffffffffffffffffffffff1673ffffffffffffffffffffffffffffffffffffffff16815260200190815260200160002081905550610f9d82600260008773ffffffffffffffffffffffffffffffffffffffff1673ffffffffffffffffffffffffffffffffffffffff16815260200190815260200160002060003373ffffffffffffffffffffffffffffffffffffffff1673ffffffffffffffffffffffffffffffffffffffff1681526020019081526020016000205461211690919063ffffffff16565b600260008673ffffffffffffffffffffffffffffffffffffffff1673ffffffffffffffffffffffffffffffffffffffff16815260200190815260200160002060003373ffffffffffffffffffffffffffffffffffffffff1673ffffffffffffffffffffffffffffffffffffffff168152602001908152602001600020819055508273ffffffffffffffffffffffffffffffffffffffff168473ffffffffffffffffffffffffffffffffffffffff167fddf252ad1be2c89b69c2b068fc378daa952ba7f163c4a11628f55a4df523b3ef846040518082815260200191505060405180910390a3600190509392505050565b600a5481565b60006007620151808342038115156110a757fe5b048115156110b157fe5b069050919050565b60075481565b601281565b601554811115156110d457600080fd5b8060158190555050565b60008060155490505b604d81101561114657601160010154601682604e8110151561110557fe5b01541115801561112c5750601660018201604e8110151561112257fe5b0154601160010154105b1561113957809150611147565b80806001019150506110e7565b5b5090565b600080600080606560003373ffffffffffffffffffffffffffffffffffffffff1673ffffffffffffffffffffffffffffffffffffffff16815260200190815260200160002060009054906101000a900460ff161515156111aa57600080fd5b600b5442101515156111bb57600080fd5b600d60000154601160000154111515156111d457600080fd5b600c60009054906101000a900460ff161515156111f057600080fd5b611208336c010000000000000000000000000261214d565b92506112138361183c565b915061122c601160010154600d60010154846000610af2565b905080151561123a57600080fd5b6001606560003373ffffffffffffffffffffffffffffffffffffffff1673ffffffffffffffffffffffffffffffffffffffff16815260200190815260200160002060006101000a81548160ff02191690831515021790555080935050505090565b600080600260003373ffffffffffffffffffffffffffffffffffffffff1673ffffffffffffffffffffffffffffffffffffffff16815260200190815260200160002060008573ffffffffffffffffffffffffffffffffffffffff1673ffffffffffffffffffffffffffffffffffffffff168152602001908152602001600020549050808311156113ac576000600260003373ffffffffffffffffffffffffffffffffffffffff1673ffffffffffffffffffffffffffffffffffffffff16815260200190815260200160002060008673ffffffffffffffffffffffffffffffffffffffff1673ffffffffffffffffffffffffffffffffffffffff16815260200190815260200160002081905550611440565b6113bf838261211690919063ffffffff16565b600260003373ffffffffffffffffffffffffffffffffffffffff1673ffffffffffffffffffffffffffffffffffffffff16815260200190815260200160002060008673ffffffffffffffffffffffffffffffffffffffff1673ffffffffffffffffffffffffffffffffffffffff168152602001908152602001600020819055505b8373ffffffffffffffffffffffffffffffffffffffff163373ffffffffffffffffffffffffffffffffffffffff167f8c5be1e5ebec7d5bd14f71427d1e84f3dd0314c0f7b2291e5b200ac8c7c3b925600260003373ffffffffffffffffffffffffffffffffffffffff1673ffffffffffffffffffffffffffffffffffffffff16815260200190815260200160002060008873ffffffffffffffffffffffffffffffffffffffff1673ffffffffffffffffffffffffffffffffffffffff168152602001908152602001600020546040518082815260200191505060405180910390a3600191505092915050565b600c60009054906101000a900460ff1681565b6000600160008373ffffffffffffffffffffffffffffffffffffffff1673ffffffffffffffffffffffffffffffffffffffff168152602001908152602001600020549050919050565b60045481565b60006008612a308342038115156115a157fe5b048115156115ab57fe5b069050919050565b6040805190810160405280600481526020017f434137450000000000000000000000000000000000000000000000000000000081525081565b600560009054906101000a900473ffffffffffffffffffffffffffffffffffffffff1681565b60008073ffffffffffffffffffffffffffffffffffffffff168373ffffffffffffffffffffffffffffffffffffffff161415151561164f57600080fd5b600160003373ffffffffffffffffffffffffffffffffffffffff1673ffffffffffffffffffffffffffffffffffffffff16815260200190815260200160002054821115151561169d57600080fd5b6116ef82600160003373ffffffffffffffffffffffffffffffffffffffff1673ffffffffffffffffffffffffffffffffffffffff1681526020019081526020016000205461211690919063ffffffff16565b600160003373ffffffffffffffffffffffffffffffffffffffff1673ffffffffffffffffffffffffffffffffffffffff1681526020019081526020016000208190555061178482600160008673ffffffffffffffffffffffffffffffffffffffff1673ffffffffffffffffffffffffffffffffffffffff1681526020019081526020016000205461212f90919063ffffffff16565b600160008573ffffffffffffffffffffffffffffffffffffffff1673ffffffffffffffffffffffffffffffffffffffff168152602001908152602001600020819055508273ffffffffffffffffffffffffffffffffffffffff163373ffffffffffffffffffffffffffffffffffffffff167fddf252ad1be2c89b69c2b068fc378daa952ba7f163c4a11628f55a4df523b3ef846040518082815260200191505060405180910390a36001905092915050565b60095481565b60008060008061184a6110de565b9250611855836110c4565b8460ff16915061189661188d61186e60075460026122d3565b600a5460018603600a0a6118866276adf1600e6122d3565b02026122ee565b8460020a6122d3565b9050809350505050919050565b600061193482600260003373ffffffffffffffffffffffffffffffffffffffff1673ffffffffffffffffffffffffffffffffffffffff16815260200190815260200160002060008673ffffffffffffffffffffffffffffffffffffffff1673ffffffffffffffffffffffffffffffffffffffff1681526020019081526020016000205461212f90919063ffffffff16565b600260003373ffffffffffffffffffffffffffffffffffffffff1673ffffffffffffffffffffffffffffffffffffffff16815260200190815260200160002060008573ffffffffffffffffffffffffffffffffffffffff1673ffffffffffffffffffffffffffffffffffffffff168152602001908152602001600020819055508273ffffffffffffffffffffffffffffffffffffffff163373ffffffffffffffffffffffffffffffffffffffff167f8c5be1e5ebec7d5bd14f71427d1e84f3dd0314c0f7b2291e5b200ac8c7c3b925600260003373ffffffffffffffffffffffffffffffffffffffff1673ffffffffffffffffffffffffffffffffffffffff16815260200190815260200160002060008773ffffffffffffffffffffffffffffffffffffffff1673ffffffffffffffffffffffffffffffffffffffff168152602001908152602001600020546040518082815260200191505060405180910390a36001905092915050565b600660009054906101000a90046c010000000000000000000000000281565b6000600260008473ffffffffffffffffffffffffffffffffffffffff1673ffffffffffffffffffffffffffffffffffffffff16815260200190815260200160002060008373ffffffffffffffffffffffffffffffffffffffff1673ffffffffffffffffffffffffffffffffffffffff16815260200190815260200160002054905092915050565b6000806000806000806000806000806000606960003373ffffffffffffffffffffffffffffffffffffffff1673ffffffffffffffffffffffffffffffffffffffff1681526020019081526020016000209050600015158160000160019054906101000a900460ff161515141515611bbb57600080fd5b611bd3336c010000000000000000000000000261214d565b9950606860003373ffffffffffffffffffffffffffffffffffffffff1673ffffffffffffffffffffffffffffffffffffffff168152602001908152602001600020600001549750606860003373ffffffffffffffffffffffffffffffffffffffff1673ffffffffffffffffffffffffffffffffffffffff168152602001908152602001600020600101549650611c77336c010000000000000000000000000261214d565b60ff1695508560100a94506000600287811515611c9057fe5b0614935087611c9e4261158e565b14158015611cb4575086611cb142611093565b14155b1515611cbf57600080fd5b6066600085151515151581526020019081526020016000206000898152602001908152602001600020600088815260200190815260200160002054606660008615151515815260200190815260200160002060008a815260200190815260200160002060008981526020019081526020016000205410159250831515831515141515611d4a57600080fd5b606660008515151515815260200190815260200160002060008981526020019081526020016000206000888152602001908152602001600020548560676000871515151515815260200190815260200160002060008b815260200190815260200160002060008a81526020019081526020016000205402811515611dca57fe5b04611dd48b61183c565b019850611dee601160020154600d600201548b6001610af2565b9150811515611dfc57600080fd5b6001606960003373ffffffffffffffffffffffffffffffffffffffff1673ffffffffffffffffffffffffffffffffffffffff16815260200190815260200160002060000160016101000a81548160ff021916908315150217905550819a505050505050505050505090565b600b5481565b6000806000806000801515606960003373ffffffffffffffffffffffffffffffffffffffff1673ffffffffffffffffffffffffffffffffffffffff16815260200190815260200160002060000160009054906101000a900460ff161515141515611ed657600080fd5b611ee1600b5461158e565b9350611eee600b54611093565b9250611f08336c010000000000000000000000000261214d565b60ff1691506000600283811515611f1b57fe5b061490508160100a60666000831515151581526020019081526020016000206000868152602001908152602001600020600085815260200190815260200160002060008282540192505081905550611f89611f84336c010000000000000000000000000261214d565b61183c565b6067600083151515158152602001908152602001600020600086815260200190815260200160002060008581526020019081526020016000206000828254019250508190555083606860003373ffffffffffffffffffffffffffffffffffffffff1673ffffffffffffffffffffffffffffffffffffffff1681526020019081526020016000206000018190555082606860003373ffffffffffffffffffffffffffffffffffffffff1673ffffffffffffffffffffffffffffffffffffffff168152602001908152602001600020600101819055506001606960003373ffffffffffffffffffffffffffffffffffffffff1673ffffffffffffffffffffffffffffffffffffffff16815260200190815260200160002060000160006101000a81548160ff0219169083151502179055505050505090565b60696020528060005260406000206000915090508060000160009054906101000a900460ff16908060000160019054906101000a900460ff16905082565b600082821115151561210b57fe5b818303905092915050565b600082821115151561212457fe5b818303905092915050565b600080828401905083811015151561214357fe5b8091505092915050565b60008060008060009250600660009054906101000a90046c010000000000000000000000000285189150600090505b601460ff168160ff1610156122a85760007f010000000000000000000000000000000000000000000000000000000000000002828260ff166014811015156121c057fe5b1a7f0100000000000000000000000000000000000000000000000000000000000000027effffffffffffffffffffffffffffffffffffffffffffffffffffffffffffff191614156122165760028301925061229b565b60048360ff1610151561229657600f828260ff1660148110151561223657fe5b1a7f0100000000000000000000000000000000000000000000000000000000000000027f0100000000000000000000000000000000000000000000000000000000000000900460ff16111515612291576001830192506122a8565b6122a8565b6122a8565b808060010191505061217c565b60006004840360ff161015156122c3576004830392506122c8565b600092505b829350505050919050565b60008082848115156122e157fe5b0490508091505092915050565b60008183106122fd57816122ff565b825b9050929150505600a165627a7a723058209b27e3346e5658b0cdb2707ee663c2384c0423110caea38c5846144b17a712460029",
  "source": "pragma solidity ^0.4.11;\n\nimport './Catecoin.sol';\n/*import './CatecoinCompetition.sol';\nimport './CatecoinDonation.sol';\nimport './CatecoinLibrary.sol';\nimport './math/Math.sol';\nimport './math/SafeMath.sol';*/\n/**\n * @title Catecoin Issuance contract\n *\n * @dev Implements all the functions to claim catecoin\n * @dev based on the Standard ERC20 Token OpenZeppelin implementatio\n */\n/* is Catecoin, CatecoinLibrary, Math, SafeMath */\ncontract CatecoinIssuance is Catecoin {\n    /*using Math for *;\n    using SafeMath for *;*/\n    /*using Math for *;\n    using SafeMath for *;\n    using CatecoinLibrary for *;*/\n  /**\n   * @section Rename all useful functions from the libraries\n   *\n   */\n\n   /*using substractSafely for SafeMath.sub;*/\n\n  /**\n   * @section Define all state variables for the issuance part\n   *\n   */\n   address public catecoinFoundationAddress;\n\n   bytes20 public cateAddressInBytes = bytes20(0xCa7e000000000000000000000000000000000000);\n   uint256 public CA7E = 10**18;\n   uint256 public milliCA7E = 10**15;\n   uint256 public microCA7E = 10**12;\n   uint256 public nanoCA7E = 10**9;\n\n   uint public startTimestamp = 1516147200; //equivalent to Wednesday, January 17, 2018 12:00:00 AM (GMT)\n   bool public issuanceIsFinished;\n\n   struct Supply {\n     uint256 all;\n     uint256 mining;\n     uint256 competition;\n     uint256 donation;\n   }\n\n   Supply totalSupply;\n   Supply circulatingSupply;\n\n   uint256 currentHalvingValue;\n   uint256[78] halvingInterval;\n\n   modifier catecoinIsLive() {\n     require(now >= startTimestamp);\n     _;\n   }\n\n   modifier isCA7E() {\n     _;\n   }\n\n   modifier maxCirculatingSupply() {\n     require(circulatingSupply.all <= totalSupply.all);\n     _;\n   }\n\n   modifier issuanceIsFinishedModifier() {\n     require(!issuanceIsFinished);\n     _;\n   }\n\n  /**\n   * &subsection Mining\n   */\n   mapping (uint8 => uint256) countClaimedAddressesByDifficulty; //RENAME TO: minedAddresses\n   mapping (address => bool) addressHasClaimed;\n\n   modifier addressHasClaimedModifier() {\n     require(!addressHasClaimed[msg.sender]);\n     _;\n   }\n\n  /**\n   * &subsection Competition\n   */\n   struct Compet_senderState {\n     bool hasParticipated;\n     bool hasClaimed;\n   }\n\n   struct Periods {\n     uint256 timePeriod;\n     uint256 dayPeriod;\n   }\n\n   //e.g strengthTable[even = true | odd = false][timePeriodOfTheDay][dayPeriodOfTheDay] = strenght\n     mapping (bool =>\n       mapping (uint256 =>\n         mapping (uint256 => uint256))) strengthTable; // strength\n   mapping (bool =>\n     mapping (uint256 =>\n       mapping (uint256 => uint256))) rewardTable;\n   mapping (address => Periods) whenHasParticipated;\n   mapping (address => Compet_senderState) public competSenderState;\n\n   modifier hasNotParticipatedInCompetition() {\n     require(competSenderState[msg.sender].hasParticipated == false);\n    /* if(addressHasParticipatedInCompetition[msg.sender].hasParticipated != 0) throw;\n*/     _;\n\n   }\n\n   modifier hasNotClaimedInCompetition() {\n     var t = competSenderState[msg.sender];\n     require(t.hasClaimed == false);\n     _;\n   }\n\n   /**\n    * &subsection Donation\n    */\n    /*modifier auctionHasEnded() {*/\n      /*require(currentAuctionContract.auctionEnd < now + 77);*/\n      /*SimpleAuction currentAuctionContract = SimpleAuction(currentAuction);*/\n      /*_;*/\n    /*}*/\n\n  function CatecoinIssuance() public {\n    // constructor\n    catecoinFoundationAddress = msg.sender;\n\n    totalSupply.all = totalSupplyCC; //See for the variable totalSupplyCC if it works\n    totalSupply.mining = 3*CA7E;\n    totalSupply.competition = 3*CA7E;\n    totalSupply.donation = 1*CA7E;\n    require(totalSupply.all == totalSupply.mining + totalSupply.competition + totalSupply.donation);\n    //Initialize the range h || Warning: Be Careful with OUT OF GAS error\n    for(uint i = 0; i < 77; i++){\n      /*halvingInterval[i] = (2/3 * ((1 - (7/9)**i) / (1 - (7/9)))) * CA7E; //same formula as in the whitepaper -> Will certainly cause a out of gas error*/\n    }\n    // The geometric serie converges to 3\n    halvingInterval[77] = 3;\n  }\n\n  /**\n   * &subsection Mining\n   */\n\n  //Main function to claim catecoins\n  function claimMinedCatecoin()\n      public\n      addressHasClaimedModifier //If the msg.sender has already claimed then throw\n      catecoinIsLive //Catecoin must be live. The contract will be sent to the network before the launch\n      maxCirculatingSupply //If the totalSupply is reached then just throw, because there are not more coins to claim\n      issuanceIsFinishedModifier //Double check: if the totalSupply is reached then issuance is finished\n      returns(bool) {\n      uint8 senderAddressDifficulty = calculateDifficulty(bytes20(msg.sender));\n      uint256 coinsToReceive = calculateMinedCatecoin(senderAddressDifficulty);\n\n      bool transfer_OK = testAndSafelyTransferCatecoin(circulatingSupply.mining, totalSupply.mining, coinsToReceive, 0);\n      require(transfer_OK);\n      addressHasClaimed[msg.sender] = true;\n      return transfer_OK;\n  }\n\n  function testAndSafelyTransferCatecoin(uint256 _circulatingSupply,\n                                   uint256 _totalSupply,\n                                   uint256 _coinsToReceive,\n                                   uint8   _supplyType)\n                                   public returns (bool)\n  {\n\n    bool transferToSender_passed;\n    bool transferToFoundation_passed;\n    uint256 adjustedCoinsToReceive;\n\n    if (_circulatingSupply + _coinsToReceive <= _totalSupply) {\n      transferToSender_passed      = transfer(msg.sender, _coinsToReceive * 6/7); //TO VERIFY: is this line valid?\n      transferToFoundation_passed  = transfer(catecoinFoundationAddress, _coinsToReceive * 1/7);\n    }\n    else {\n      adjustedCoinsToReceive      = sub(_totalSupply, _circulatingSupply); // Change all math function before upload to the git\n      transferToSender_passed     = transfer(msg.sender, adjustedCoinsToReceive * 6/7);\n      transferToFoundation_passed = transfer(catecoinFoundationAddress, adjustedCoinsToReceive * 1/7);\n    }\n\n    //Before preventing the sender to call the function again, check if the sender and the foundation received the coins\n    bool allTransfers_passed = transferToSender_passed && transferToFoundation_passed;\n    require(allTransfers_passed);\n\n    if (_circulatingSupply + _coinsToReceive <= _totalSupply){\n      if (_supplyType == 0) circulatingSupply.mining += _coinsToReceive;\n      if (_supplyType == 1) circulatingSupply.competition += _coinsToReceive;\n      if (_supplyType == 2) circulatingSupply.donation += _coinsToReceive;\n    }\n    else {\n      if (_supplyType == 0) circulatingSupply.mining = totalSupply.mining;\n      if (_supplyType == 1) circulatingSupply.competition = totalSupply.competition;\n      if (_supplyType == 2) circulatingSupply.donation = totalSupply.donation;\n      issuanceIsFinished = true;\n    }\n\n    return allTransfers_passed;\n  }\n/*\n  function setNewCirculatingSupply(uint8 supplyType) public {\n\n  }\n*/\n  /**\n   * @dev Function to calculate the difficulty of an Ca7e Address\n   * @param _claimerAddressInBytes bytes20 The address of the claimer translate in bytes20\n   * @return A uint8 specifying the difficulty of the given address\n   */\n  function calculateDifficulty(bytes20 _claimerAddressInBytes) internal view returns (uint8) {\n      uint8 countZeros = 0;\n      bytes20 claimerAddressMasked = _claimerAddressInBytes ^ cateAddressInBytes;\n\n      for(uint8 i = 0; i < claimerAddressMasked.length; i++) {\n          // compare the claimer address to the \"model\" cate address\n          if (claimerAddressMasked[i] == 0x00) {\n              countZeros += 2;\n          }\n          else {\n              //claimer address is at least equal to 0xCa7e********, where * stands for a hexadecimal excluding zero\n              if (countZeros >= 4) {\n                  //byte has a zero on the left side i.e 0x0*\n                  if (uint8(claimerAddressMasked[i]) <= 15) {\n                      countZeros += 1;\n                      break;\n                  }\n                  //byte has only a zero on the right side but not on the left side i.e 0x*0\n                  else {\n                      break;\n                  }\n              }\n              else {\n                  break;\n              }\n          }\n      }\n      //claimer address has at least the prefix 0xca7e\n      if (countZeros - 4 >= 0) {\n          countZeros -= 4; //substract the counted bytes of the prefix\n      }\n      //claimer address is not of the right form\n      else {\n          countZeros = 0;\n      }\n\n      return countZeros;\n  }\n\n  function calculateMinedCatecoin(uint8 _senderAddressDifficulty) public returns(uint256) {\n      uint256 h = calculateHalving();\n      setNewHalving(h);\n      uint256 d = _senderAddressDifficulty;\n      /*uint256 minedCatecoin =min256(0.5*CA7E, 777.7777 * 10**(d - 1) * nanoCA7E) / 2**h; //TODO: test division*/\n      uint256 minedCatecoin = div(min256(div(CA7E,2), div(7777777, 10^4) * 10**(d - 1) * nanoCA7E), 2**h); //TODO: test division\n\n      return minedCatecoin;\n  }\n\n  function calculateHalving() public view returns (uint256) {\n      for (uint256 i = currentHalvingValue; i < 77; i++) {\n        if(halvingInterval[i] <= circulatingSupply.mining && circulatingSupply.mining < halvingInterval[i+1]) return i;\n      }\n  }\n\n  function setNewHalving(uint256 _lastelyCalculatedHalvingValue) public {\n    require(_lastelyCalculatedHalvingValue > currentHalvingValue);\n    currentHalvingValue = _lastelyCalculatedHalvingValue;\n  }\n\n  /**\n   * &subsection Competition\n   */\n\n\n   /**\n    * &info The data will be available during 7 days only, after this, an address won't be able to claim anymore\n    */\n   function catecoinCompetition() public isCA7E hasNotParticipatedInCompetition returns(bool) {\n      uint256 t = calculateCurrentTimePeriod(startTimestamp);\n      uint256 d = calculateCurrentDayOfTheWeek(startTimestamp);\n      uint256 s = calculateDifficulty(bytes20(msg.sender)); //strenght of sender's address\n      bool evenAddress = (s % 2 == 0);\n\n      // addresses have to claim the coins after the playing period\n      strengthTable[evenAddress][t][d] += 16**s;\n      rewardTable[evenAddress][t][d] += calculateMinedCatecoin(calculateDifficulty(bytes20(msg.sender)));\n      whenHasParticipated[msg.sender].timePeriod = t;\n      whenHasParticipated[msg.sender].dayPeriod = d;\n      competSenderState[msg.sender].hasParticipated = true;\n    }\n\n   function claimMinedCatecoin_InCompetition() public hasNotClaimedInCompetition() returns(bool) {\n      uint8 senderAddressDifficulty = calculateDifficulty(bytes20(msg.sender));\n      uint256 coinsToReceive;\n      uint  t =  whenHasParticipated[msg.sender].timePeriod;\n      uint  d =  whenHasParticipated[msg.sender].dayPeriod;\n      uint s =  calculateDifficulty(bytes20(msg.sender));\n      uint256 strengthOfTheAddress = 16**s;\n      bool evenAddress = (s % 2 == 0);\n\n      // Checks if the competition in which the sender has participated has already finished\n      require(calculateCurrentTimePeriod(now) != t && calculateCurrentDayOfTheWeek(now) != d);\n\n      bool evenAddressesWon = (strengthTable[evenAddress][t][d] >= strengthTable[!evenAddress][t][d]);\n      // Checks if the sender has won\n      require(evenAddressesWon == evenAddress);\n\n      coinsToReceive = calculateMinedCatecoin(senderAddressDifficulty) + (rewardTable[!evenAddress][t][d] * strengthOfTheAddress/strengthTable[evenAddress][t][d]);\n\n      bool transfer_OK = testAndSafelyTransferCatecoin(circulatingSupply.competition, totalSupply.competition, coinsToReceive, 1);\n      require(transfer_OK);\n      competSenderState[msg.sender].hasClaimed = true;\n\n      return transfer_OK;\n    }\n/*Catecoin Library util functions*/\n    function calculateCurrentTimePeriod(uint _startTimestamp) public view returns (uint256) {\n      return ((now - _startTimestamp) / 10800) % 8; // To TEST return currentTimePeriod\n    }\n\n    function calculateCurrentDayOfTheWeek(uint _startTimestamp) public view returns (uint256) { // Day 0 is equal to Wednesday --> to change if not launched on 17.01.18\n      return ((now - _startTimestamp) / 86400) % 7; // To TEST return currentDayPeriod\n    }\n  /* ZEPPELIN Math.sol Libray*/\n  function max64(uint64 a, uint64 b) internal pure returns (uint64) {\n    return a >= b ? a : b;\n  }\n\n  function min64(uint64 a, uint64 b) internal pure returns (uint64) {\n    return a < b ? a : b;\n  }\n\n  function max256(uint256 a, uint256 b) internal pure returns (uint256) {\n    return a >= b ? a : b;\n  }\n\n  function min256(uint256 a, uint256 b) internal pure returns (uint256) {\n    return a < b ? a : b;\n  }\n\n    /* ZEPPELIN SafeMath.sol Libray*/\n  function mul(uint256 a, uint256 b) internal pure returns (uint256) {\n    if (a == 0) {\n      return 0;\n    }\n    uint256 c = a * b;\n    assert(c / a == b);\n    return c;\n  }\n\n  function div(uint256 a, uint256 b) internal pure returns (uint256) {\n    // assert(b > 0); // Solidity automatically throws when dividing by 0\n    uint256 c = a / b;\n    // assert(a == b * c + a % b); // There is no case in which this doesn't hold\n    return c;\n  }\n\n  function sub(uint256 a, uint256 b) internal pure returns (uint256) {\n    assert(b <= a);\n    return a - b;\n  }\n\n  function add(uint256 a, uint256 b) internal pure returns (uint256) {\n    uint256 c = a + b;\n    assert(c >= a);\n    return c;\n\n}\n}\n",
  "sourcePath": "/home/gno/catecoin/catecoin-project/ca7ecoin-contracts/contracts/CatecoinIssuance.sol",
  "compiler": {
    "name": "solc",
    "version": "0.4.19+commit.c4cbbb05.Emscripten.clang"
  },
  "schemaVersion": "1.0.1",
  "updatedAt": "2018-03-03T21:26:49.201Z"
}